:100000000C9450000C945A000C945A000C945A0012
:100010000C945A000C945A000C945A000C945A00F8
:100020000C945A000C945A000C945A000C945A00E8
:100030000C945A000C945A000C945A000C945A00D8
:100040000C945A000C945A000C945A000C945A00C8
:100050000C945A000C945A000C945A000C945A00B8
:100060000C945A000C945A000C945A000C945A00A8
:100070000C945A000C945A000C945A000C945A0098
:100080000C945A000C945A000C945A000C945A0088
:100090000C945A000C945A000C945A000C945A0078
:1000A00011241FBECFEFCDBFDFE3DEBF0E9487006C
:1000B0000C94E9000C940000E0E0F6E080E182831B
:1000C000168281E0808308959091040895FFFCCF0B
:1000D000809302080895CF93DF93EC0103C021962B
:1000E0000E94640088818111FACFDF91CF91089539
:1000F00081E08093080680910B0680FFFCCFE0E052
:10010000F6E0838581608387808991890895CF9304
:10011000DF93CDB7DEB72597CDBFDEBF0E945C0071
:100120000E9478004AE050E0BE016F5F7F4F9695D5
:100130008795969587950E94A90086ED91E40E9487
:100140006B00CE0101960E946B008AE00E94640061
:10015000E7CF4532510520F4423010F00C94B40042
:10016000FB011082CB010895BB274A3031F499235B
:1001700022F4BDE2909581959F4F0C94C000BB275F
:10018000FB015527AA27880F991FAA1FA41710F053
:10019000A41B83955051B9F7A05DAA3308F0A95D5F
:1001A000A193009779F7B111B1931192CB010C94FF
:1001B000D900DC01FC01672F71917723E1F73297B9
:1001C00004C07C916D9370836291AE17BF07C8F332
:0601D0000895F894FFCF32
:0E01D60041444320726573756C74203D200017
:00000001FF
