:020000020000FC
:040000000C940E004E
:100018000C947B0007E10EBF0FEF0DBFCAC00F9312
:1000280001E00093080600910B0600FFFCCF01E0F9
:1000380000930B068091100699270F9108952F922F
:100048001F92899F812D99271F902F9008950F93B4
:1000580003E000930606E3DF282E0F9108950F931F
:1000680002E000930606DBDF382E0F9108950F9308
:1000780001E000930606D3DF482E0F9108950F93F1
:1000880000E000930606CBDF582E0F910895DFDFBE
:10009800E6DFEDDFF4DF0895E2DFE9DFF0DF089562
:1000A8000F931F932F933F93022D132D242D352D3E
:1000B8000621902F812FC3DF182F902F822FBFDFAB
:1000C800282F902F832FBBDF382F80E01093280A2A
:1000D8008093290A20932A0A80932B0A30932C0AAA
:1000E80080932D0A3F912F911F910F9108950091B0
:1000F80009040270023029F00091090400930904F0
:100108001895609402E000930904189501E10093A2
:10011800020605E00093000608950091000412E02D
:1001280010950123009300040091600418E01095D5
:100138000123009360040091600414E010950123EA
:10014800009360040091600412E01095012300936D
:1001580060040091600411E010950123009360048D
:100168000091200411E0012B009320040091200449
:1001780012E0012B009320040091200414E0012BCD
:1001880000932004089501E00093E4050FEF009325
:10019800260A00E00093270A0BE00093000A03E711
:1001A8000093010A0895EFDF089512E010931104F7
:1001B8000895ACDFB2DFF7DFF8DF0FEF602E789439
:0801C80000C065DF6DDFFDCF13
:00000001FF
