:020000020000FC
:040000000C940E004E
:100018000C94780007E10EBF0FEF0DBFC7C00F9318
:1000280001E00093080600910B0600FFFCCF01E0F9
:1000380000930B068091100699270F910895899FC8
:10004800812D8621992708950F9303E000930606D2
:10005800E6DF282E0F9108950F9302E0009306061D
:10006800DEDF382E0F9108950F9301E00093060606
:10007800D6DF482E0F9108950F9300E000930606EF
:10008800CEDF582E0F910895DFDFE6DFEDDFF4DFD6
:100098000895E2DFE9DFF0DF08950F931F932F93B0
:1000A8003F93022D132D242D352D0621902F812FBE
:1000B800C6DF182F902F822FC2DF282F902F832F73
:1000C800BEDF382F80E01093280A8093290A2093F6
:1000D8002A0A80932B0A30932C0A80932D0A3F9189
:1000E8002F911F910F910895F0910904F270F23049
:1000F80029F0F0910904F093090418956094F2E04E
:10010800F0930904189501E10093020605E00093B5
:10011800000608950091000412E010950123009351
:1001280000040091600418E0109501230093600416
:100138000091600414E0109501230093600400917D
:10014800600412E01095012300936004009160049C
:1001580011E010950123009360040091200411E040
:10016800012B009320040091200412E0012B00933E
:1001780020040091200414E0012B0093200408952A
:1001880001E00093E4050FEF0093260A00E00093D6
:10019800270A0BE00093000A03E70093010A089579
:1001A800EFDF089512E0109311040895ACDFB2DF79
:1001B800F7DFF8DF0FEF602E789400C065DF6DDFA2
:0201C800FDCF69
:00000001FF
