:020000020000FC
:040000000C941A0042
:040018000C948E00B6
:100030000C94A70007E10EBF0FEF0DBFFCC00F939C
:1000400001E00093080600910B0600FFFCCF01E0E1
:1000500000930B068091100699270F910895899FB0
:10006000812D8621992708950F9303E000930606BA
:10007000E6DF282E0F9108950F9302E00093060605
:10008000DEDF382E0F9108950F9301E000930606EE
:10009000D6DF482E0F9108950F9300E000930606D7
:1000A000CEDF582E0F910895DFDFE6DFEDDFF4DFBE
:1000B0000895E2DFE9DFF0DF0895022D1FEF1093CE
:1000C0008C0A00938D0A0895CFDFF7DF08950F9310
:1000D0001F932F933F93022D132D242D352D062191
:1000E000902F812FBCDF182F902F822FB8DF282F61
:1000F000902F832FB4DF382F80E01093280A80934D
:10010000290A20932A0A80932B0A30932C0A809381
:100110002D0A3F912F911F910F910895009109048D
:100120000270023051F0009109040170013051F069
:1001300000910904009309041895609402E000936B
:1001400009041895739401E000930904189500912F
:10015000860A00FF18950093860A8394189501E19A
:100160000093020605E00093000608950091000444
:1001700012E010950123009300040091000411E0A7
:1001800010950123009300040091600418E010957D
:100190000123009360040091600414E01095012392
:1001A000009360040091600412E010950123009315
:1001B00060040091600411E0109501230093600435
:1001C0000091200411E0012B0093200400912004F1
:1001D00012E0012B009320040091200414E0012B75
:1001E00000932004089501E00093E4050FEF0093CD
:1001F000260A00E00093270A0BE00093000A03E7B9
:100200000093010A089503E00093800A00E0009340
:10021000810A01E00093850A0FEF00938C0A009396
:100220008D0A0895E0DFEFDF089512E010931104C6
:1002300010931004089593DF99DFF4DFF6DF0FEFDA
:10024000602E00E0702E802E78940FC02DDF3FDFEF
:100250000CC03ADF082D1FEF101B07FD012F12E025
:100260000102202C26DF33DF00C0072D0170003093
:0802700069F3013071F3F9CFCD
:00000001FF
