:020000020000FC
:1000000007E10EBF0FEF0DBFB1C00F9301E00093EA
:10001000080600910B0600FFFCCF01E000930B06E1
:100020008091100699270F9108950F921F92899F32
:10003000812D99271F900F9008950F9303E000934F
:100040000606E3DF082E0F9108950F9302E0009358
:100050000606DBDF182E0F9108950F9301E0009341
:100060000606D3DF282E0F9108950F9300E000932A
:100070000606CBDF382E0F910895DFDFE6DFEDDFD8
:10008000F4DF0895E2DFE9DFF0DF08950F931F93B7
:100090002F933F93002D112D222D332D902F812F43
:1000A000C4DF182F902F822FC0DF282F902F832F8F
:1000B000BCDF382F1093380A20933A0A30933C0A59
:1000C0003F912F911F910F91089501E10093020636
:1000D00005E00093000608950091000412E01095D9
:1000E0000123009300040091800418E0109501237F
:1000F000009380040091600418E0109501230093A0
:1001000060040091600414E01095012300936004E2
:100110000091600412E010950123009360040091A7
:10012000600411E010950123009360040091200405
:1001300010E2012B009320040091200414E0012B15
:10014000009320040091A00410E1012B0093A0046F
:10015000089501E00093E4050FEF0093360A00E0F4
:100160000093370A0BE00093000A0895AEDFB4DF76
:10017000F0DFF0E005C081DF89DF0895089508957C
:100180000F2F03700030B9F30130C1F30230B9F31F
:02019000F7CFA7
:00000001FF
