:020000020000FC
:040000000C940E004E
:100018000C947A0007E10EBF0FEF0DBFD8C00F9305
:1000280001E00093080600910B0600FFFCCF01E0F9
:1000380000930B068091100699270F9108950F924F
:100048001F92899F812D99271F900F9008950F93D4
:1000580003E000930606E3DF082E0F9108950F933F
:1000680002E000930606DBDF182E0F9108950F9328
:1000780001E000930606D3DF282E0F9108950F9311
:1000880000E000930606CBDF382E0F910895DFDFDE
:10009800E6DFEDDFF4DF0895E2DFE9DFF0DF089562
:1000A8000F931F932F933F93002D112D222D332D46
:1000B800902F812FC4DF182F902F822FC0DF282F79
:1000C800902F832FBCDF382F80E01093280A80936D
:1000D800290A20932A0A80932B0A30932C0A8093AA
:1000E8002D0A3F912F911F910F91089500910904B6
:1000F8000170013049F000C04094002702E0000080
:10010800009309040000189553940027000001E0AB
:10011800000000930904189501E10093020605E028
:100128000093000608950091000412E01095012341
:10013800009300040091000411E01095012300933E
:1001480000040091600418E01095012300936004F6
:100158000091600414E0109501230093600400915D
:10016800600412E01095012300936004009160047C
:1001780011E010950123009360040091200411E020
:10018800012B009320040091200412E0012B00931E
:1001980020040091200414E0012B0093200408950A
:1001A80001E00093E4050FEF0093260A00E00093B6
:1001B800270A0BE00093000A03E70093010A089559
:1001C80012E01093100412E0109311040895A4DFB4
:1001D800AADFE6DFF5DF0FEF402E00E0502E00E04B
:1001E800602E789407C053DF5BDF04C003C02FDFA5
:1001F800082E00C0052D03700030A9F30130B1F3BB
:060208000230A9F3F7CF5C
:00000001FF
