:100000000C9450000C9462000C9462000C946200FA
:100010000C9462000C9462000C9462000C946200D8
:100020000C9462000C9462000C9462000C946200C8
:100030000C9462000C9462000C9462000C946200B8
:100040000C9462000C9462000C9462000C946200A8
:100050000C9462000C9462000C9462000C94620098
:100060000C9462000C9462000C9462000C94620088
:100070000C9462000C9462000C9462000C94620078
:100080000C9462000C9462000C9462000C94620068
:100090000C9462000C9462000C9462000C94620058
:1000A00011241FBECFEFCDBFDFE3DEBF28E2A0E00B
:1000B000B8E201C01D92AC32B207E1F70E945D02C6
:1000C0000C9499040C940000E0E0F6E080E1828357
:1000D000168281E080830895E0E0FAE083E0818386
:1000E0008FEF90E086A397A38181806181838BE06D
:1000F0008083E0E2F4E081818160818308950E9441
:1001000064000E946C0085E090E080931428909336
:10011000152810920828109209288AE999E9A9E976
:10012000BFE38093262890932728A0932828B09394
:1001300029288DEC9CECACE4BEE3809304289093DA
:100140000528A0930628B093072810921E28109225
:100150001F28109220281092212880E090E0A0E42F
:10016000B0E480930E2890930F28A0931028B093AA
:10017000112808954F925F926F927F928F929F9273
:10018000AF92BF92CF92DF92EF92FF92CF93DF9325
:10019000CDB7DEB72897CDBFDEBF809116289091EE
:1001A0001728A0911828B09119282C013D012AE0A8
:1001B000420E511C611C711C60910E2870910F2819
:1001C000809110289091112820910A2830910B28B5
:1001D00040910C2850910D280E9462026B017C0115
:1001E00020911A2830911B2840911C2850911D28DD
:1001F0000E9463024B015C0160931A2870931B28D4
:1002000080931C2890931D286091142870911528C4
:10021000072E000C880B990B0E94770369837A8361
:100220008B839C839B01AC01C501B4010E94270410
:1002300088236CF089819A81AB81BC8180931A28D4
:1002400090931B28A0931C28B0931D2822C0609176
:10025000082870910928072E000C880B990B0E9422
:1002600077036D837E838F8398879B01AC01C501E3
:10027000B4010E94CF02181664F08D819E81AF8177
:10028000B88580931A2890931B28A0931C28B093BC
:100290001D2820910028309101284091022850917A
:1002A0000328C701B6010E9462026D837E838F839B
:1002B000988720912628309127284091282850910E
:1002C0002928C701B6010E942C044B015C0120E0E3
:1002D00030E040E251E4609104287091052880915B
:1002E0000628909107280E942C0420911A2830910A
:1002F0001B2840911C2850911D280E942C049B0112
:10030000AC01C501B4010E9463024B015C0120E015
:1003100030E040E251E460911E2870911F288091E6
:100320002028909121280E94D4029B01AC016D816C
:100330007E818F8198850E942C049B01AC01C501B0
:10034000B4010E9463024B015C0160932228709308
:10035000232880932428909325289B01AC01698150
:100360007A818B819C810E94CF0218166CF0898162
:100370009A81AB81BC818093222890932328A093FB
:100380002428B093252822C060910828709109285C
:10039000072E000C880B990B0E94770369837A83E0
:1003A0008B839C839B01AC01C501B4010E94CF02E9
:1003B000181664F089819A81AB81BC8180932228D0
:1003C00090932328A0932428B0932528C092002836
:1003D000D0920128E0920228F09203284092162839
:1003E0005092172860921828709219282896CDBF2D
:1003F000DEBFDF91CF91FF90EF90DF90CF90BF9065
:10040000AF909F908F907F906F905F904F900895E6
:1004100081E08093080680910B0680FFFCCFE0E02E
:10042000F6E083858160838780899189089590E0D3
:100430008093280A9093290A08950E9408028093C5
:100440002A2890932B28BC01990F880B990B0E94A6
:10045000770320E030E040EA50E40E942C0420E0E2
:1004600030E040E85AE30E942C0460930A2870931D
:100470000B2880930C2890930D280E94BA0020E04E
:1004800030E04FE753E46091222870912328809157
:100490002428909125280E942C0420E030E040EA96
:1004A00050E40E94D4020E944603862F60931228D3
:1004B000709313280E94170208950E947F000E94E3
:1004C0001D02FDCF5058BB27AA270E947A020C9428
:1004D000ED030E94DF0338F00E94E60320F039F4B8
:1004E0009F3F19F426F40C94DC030EF4E095E7FB2F
:1004F0000C94D603E92F0E94FE0358F3BA17620743
:1005000073078407950720F079F4A6F50C9420046E
:100510000EF4E0950B2EBA2FA02D0B01B90190011E
:100520000C01CA01A0011124FF27591B99F0593F62
:1005300050F4503E68F11A16F040A22F232F342FAA
:100540004427585FF3CF469537952795A795F040F8
:100550005395C9F77EF41F16BA0B620B730B840B0D
:10056000BAF09150A1F0FF0FBB1F661F771F881FC5
:10057000C2F70EC0BA0F621F731F841F48F487951D
:1005800077956795B795F7959E3F08F0B0CF93950F
:10059000880F08F09927EE0F9795879508950E9488
:1005A000B20308F481E008950E94E8020C94ED0380
:1005B0000E94E60358F00E94DF0340F029F45F3FF9
:1005C00029F00C94D60351110C9421040C94DC03F3
:1005D0000E94FE0368F39923B1F3552391F3951B11
:1005E000550BBB27AA2762177307840738F09F5F54
:1005F0005F4F220F331F441FAA1FA9F335D00E2EC1
:100600003AF0E0E832D091505040E695001CCAF72D
:100610002BD0FE2F29D0660F771F881FBB1F2617F0
:1006200037074807AB07B0E809F0BB0B802DBF01C7
:10063000FF2793585F4F3AF09E3F510578F00C9496
:10064000D6030C9421045F3FE4F3983ED4F38695DF
:1006500077956795B795F7959F5FC9F7880F911DB7
:100660009695879597F90895E1E0660F771F881FA3
:10067000BB1F621773078407BA0720F0621B730B56
:10068000840BBA0BEE1F88F7E09508950E940604CC
:1006900088F09F5798F0B92F9927B751B0F0E1F043
:1006A000660F771F881F991F1AF0BA95C9F714C0F3
:1006B000B13091F00E942004B1E008950C94200420
:1006C000672F782F8827B85F39F0B93FCCF386952C
:1006D00077956795B395D9F73EF490958095709589
:1006E00061957F4F8F4F9F4F0895E89409C097FB06
:1006F0003EF490958095709561957F4F8F4F9F4FF9
:100700009923A9F0F92F96E9BB279395F69587953C
:1007100077956795B795F111F8CFFAF4BB0F11F4FF
:1007200060FF1BC06F5F7F4F8F4F9F4F16C08823A6
:1007300011F096E911C0772321F09EE8872F762FDC
:1007400005C0662371F096E8862F70E060E02AF01D
:100750009A95660F771F881FDAF7880F9695879509
:1007600097F90895990F0008550FAA0BE0E8FEEFDE
:1007700016161706E807F907C0F012161306E40765
:10078000F50798F0621B730B840B950B39F40A265E
:1007900061F0232B242B252B21F408950A2609F43C
:1007A000A140A6958FEF811D811D089597F99F6740
:1007B00080E870E060E008959FEF80EC08950024E9
:1007C0000A941616170618060906089500240A94B6
:1007D00012161306140605060895092E0394000C3C
:1007E00011F4882352F0BB0F40F4BF2B11F460FFCB
:1007F00004C06F5F7F4F8F4F9F4F089557FD9058F4
:10080000440F551F59F05F3F71F04795880F97FBD4
:10081000991F61F09F3F79F087950895121613068E
:100820001406551FF2CF4695F1DF08C016161706BD
:100830001806991FF1CF86957105610508940895F2
:10084000E894BB2766277727CB0197F908950E9484
:10085000B20308F48FEF08950E943F040C94ED0357
:100860000E94DF0338F00E94E60320F0952311F088
:100870000C94D6030C94DC0311240C9421040E94E4
:10088000FE0370F3959FC1F3950F50E0551F629FD3
:10089000F001729FBB27F00DB11D639FAA27F00DD9
:1008A000B11DAA1F649F6627B00DA11D661F829F00
:1008B0002227B00DA11D621F739FB00DA11D621FE5
:1008C000839FA00D611D221F749F3327A00D611D02
:1008D000231F849F600D211D822F762F6A2F1124E4
:1008E0009F5750409AF0F1F088234AF0EE0FFF1F17
:1008F000BB1F661F771F881F91505040A9F79E3F6E
:10090000510580F00C94D6030C9421045F3FE4F36E
:10091000983ED4F3869577956795B795F795E795C3
:100920009F5FC1F7FE2B880F911D9695879597F9CC
:060930000895F894FFCFCA
:00000001FF
