:100000000C9450000C9465000C9465000C946500F1
:100010000C9465000C9465000C9482000C946500AF
:100020000C9465000C9465000C9465000C946500BC
:100030000C9465000C9465000C9465000C946500AC
:100040000C9465000C9465000C9465000C9465009C
:100050000C9465000C9465000C9465000C9465008C
:100060000C9465000C9465000C9465000C9465007C
:100070000C9465000C9465000C9465000C9465006C
:100080000C9465000C9465000C9465000C9465005C
:100090000C9465000C9465000C9465000C9465004C
:1000A00011241FBECFEFCDBFDFE3DEBF18E2A0E01B
:1000B000B8E2E4E5F5E002C005900D92A230B10788
:1000C000D9F70E940D010C94A8020C940000E0EAFC
:1000D000F0E0808180638083E0E0F6E012821682A7
:1000E00081E0808308950E94670087E08093210467
:1000F000E0E0F4E081E0828392E0908B8093620400
:10010000789408951F920F920FB60F9211248F9337
:100110009F9387E893E10197F1F700C00000809179
:10012000090480FF14C08091002890910128019754
:1001300029F4109200281092012806C081E090E076
:10014000809300289093012881E0809309049F9177
:100150008F910F900FBE0F901F90189581E08093A4
:10016000080680910B0680FFFCCFE0E0F6E0838577
:1001700081608387808991890895CF92DF92EF9281
:10018000FF920E94AE00BC0180E090E00E948901D5
:1001900020E030EC4FE754E40E94170120E030E00B
:1001A00040E451E40E943B026B017C0180910028F5
:1001B00090910128892B21F487E08093260428C0A0
:1001C00020E030E040E850E4C701B6010E9412018F
:1001D00088233CF4E0E2F4E087E0868381E08583D5
:1001E00017C020E030E040E051E4C701B6010E94B2
:1001F000120188233CF4E0E2F4E087E0868382E0A9
:10020000858306C0E0E2F4E087E0868384E08583AE
:10021000FF90EF90DF90CF9008950E9473000E94AE
:10022000BD00FDCF0E94C60108F481E008950E9440
:100230002B010C9401020E94FA0158F00E94F30174
:1002400040F029F45F3F29F00C94EA0151110C941D
:1002500035020C94F0010E94120268F39923B1F365
:10026000552391F3951B550BBB27AA2762177307DC
:10027000840738F09F5F5F4F220F331F441FAA1F70
:10028000A9F335D00E2E3AF0E0E832D0915050402C
:10029000E695001CCAF72BD0FE2F29D0660F771FDA
:1002A000881FBB1F261737074807AB07B0E809F0C0
:1002B000BB0B802DBF01FF2793585F4F3AF09E3F45
:1002C000510578F00C94EA010C9435025F3FE4F399
:1002D000983ED4F3869577956795B795F7959F5F88
:1002E000C9F7880F911D9695879597F90895E1E0D4
:1002F000660F771F881FBB1F621773078407BA0733
:1003000020F0621B730B840BBA0BEE1F88F7E0958D
:100310000895E89409C097FB3EF4909580957095F8
:1003200061957F4F8F4F9F4F9923A9F0F92F96E941
:10033000BB279395F695879577956795B795F111B6
:10034000F8CFFAF4BB0F11F460FF1BC06F5F7F4F53
:100350008F4F9F4F16C0882311F096E911C0772365
:1003600021F09EE8872F762F05C0662371F096E86E
:10037000862F70E060E02AF09A95660F771F881F3D
:10038000DAF7880F9695879597F90895990F0008E1
:10039000550FAA0BE0E8FEEF16161706E807F90757
:1003A000C0F012161306E407F50798F0621B730BF2
:1003B000840B950B39F40A2661F0232B242B252B73
:1003C00021F408950A2609F4A140A6958FEF811D16
:1003D000811D089597F99F6780E870E060E00895B7
:1003E0009FEF80EC089500240A941616170618064D
:1003F0000906089500240A94121613061406050629
:100400000895092E0394000C11F4882352F0BB0FB9
:1004100040F4BF2B11F460FF04C06F5F7F4F8F4F1C
:100420009F4F089557FD9058440F551F59F05F3F57
:1004300071F04795880F97FB991F61F09F3F79F006
:1004400087950895121613061406551FF2CF469588
:10045000F1DF08C0161617061806991FF1CF86950A
:100460007105610508940895E894BB2766277727EE
:10047000CB0197F908950E944E020C9401020E944C
:10048000F30138F00E94FA0120F0952311F00C944A
:10049000EA010C94F00111240C9435020E9412021E
:1004A00070F3959FC1F3950F50E0551F629FF001C7
:1004B000729FBB27F00DB11D639FAA27F00DB11DE0
:1004C000AA1F649F6627B00DA11D661F829F222769
:1004D000B00DA11D621F739FB00DA11D621F839FF0
:1004E000A00D611D221F749F3327A00D611D231FC6
:1004F000849F600D211D822F762F6A2F11249F5714
:1005000050409AF0F1F088234AF0EE0FFF1FBB1F16
:10051000661F771F881F91505040A9F79E3F5105D5
:1005200080F00C94EA010C9435025F3FE4F3983EAE
:10053000D4F3869577956795B795F795E7959F5F7F
:10054000C1F7FE2B880F911D9695879597F9089511
:04055000F894FFCF4D
:020554000100A4
:00000001FF
