:100000000C9434000C943E000C943E000C943E0082
:100010000C943E000C943E000C943E000C943E0068
:100020000C943E000C943E000C943E000C943E0058
:100030000C943E000C943E000C943E000C943E0048
:100040000C943E000C943E000C943E000C943E0038
:100050000C943E000C943E000C943E000C943E0028
:100060000C943E000C943E0011241FBECFEFD8E04C
:10007000DEBFCDBF0E944E000C9453000C940000D4
:100080008AB1806F8AB984B1807F84B9089583B1C1
:1000900020E1829FC00111248BB908950E94400085
:0A00A0000E944700FDCFF894FFCF47
:00000001FF
