:100000000C9434000C943E000C943E000C943E0082
:100010000C943E000C943E000C943E000C943E0068
:100020000C943E000C943E000C943E000C943E0058
:100030000C943E000C943E000C943E000C943E0048
:100040000C943E000C943E000C943E000C943E0038
:100050000C943E000C943E000C943E000C943E0028
:100060000C943E000C943E0011241FBECFEFD8E04C
:10007000DEBFCDBF0E9475000C947A000C94000086
:10008000ECE7F0E0808184648083EAE7F0E080813F
:100090008068808310927B000895ECE7F0E0808117
:1000A000807F808380818083EAE7F0E080818064C4
:1000B000808380917A0086FDFCCF809178009091BA
:1000C000790008958AB18C618AB90E944000089530
:1000D0000E944D008130924020F08BB184608BB93A
:1000E00008958BB18B7F8BB908950E9462000E94A6
:0800F0006800FDCFF894FFCF7A
:00000001FF
