S0140000636F6D70696C652D746573742E737265633A
S11300000C9434000C943E000C943E000C943E007E
S11300100C943E000C943E000C943E000C943E0064
S11300200C943E000C943E000C943E000C943E0054
S11300300C943E000C943E000C943E000C943E0044
S11300400C943E000C943E000C943E000C943E0034
S11300500C943E000C943E000C943E000C943E0024
S11300600C943E000C943E0011241FBECFEFD8E048
S1130070DEBFCDBF0E946B000C9470000C94000096
S1130080ECE7F0E0808184648083EAE7F0E080813B
S11300908068808310927B000895ECE7F0E0808113
S11300A0807F808380818083EAE7F0E080818064C0
S11300B0808380917A0086FDFCCF809178009091B6
S11300C0790008958AB18C618AB90E94400008952C
S11300D00E944D0008950E9462000E946800FDCFB6
S10700E0F894FFCFBE
S9030000FC
