:100000000C9450000C945A000C945A000C945A0012
:100010000C945A000C945A000C945A000C945A00F8
:100020000C945A000C945A000C945A000C945A00E8
:100030000C945A000C945A000C945A000C945A00D8
:100040000C945A000C945A000C945A000C945A00C8
:100050000C945A000C945A000C945A000C945A00B8
:100060000C945A000C945A000C945A000C945A00A8
:100070000C945A000C945A000C945A000C945A0098
:100080000C945A000C945A000C945A000C945A0088
:100090000C945A000C945A000C945A000C945A0078
:1000A00011241FBECFEFCDBFDFE3DEBF0E94F400FF
:1000B0000C9413010C940000E0EAF0E0808180636E
:1000C0008083E0E0F6E01282168281E0808308956A
:1000D00081E08093080680910B0680FFFCCFE0E072
:1000E000F6E0838581608387808991890895EF9206
:1000F000FF920F931F93CF93DF93182F12951F70CA
:10010000C0EAD4E09C81212F30E020953095F901A0
:10011000F595E795F595E795F595E795E170E29505
:10012000E07FE095E923EC83A0E0B4E014969C9195
:100130001497F901F595E795F595E795E170EE0FC0
:10014000E095E9231496EC9314976894EE24E7F86D
:10015000FF24F2F8F7019481359527952170220F3D
:10016000220F220F20952923248320E234E0F90175
:10017000048191E0912791709095902394830C8154
:10018000982F991F9927991F892F90E08295929512
:10019000907F9827807F9827802B8C8314968C9152
:1001A000149712FB662760F970E0660F771F682BC3
:1001B00014966C93F701848111FB442740F950E0B9
:1001C000440F551F440F551F440F551F482B4483A0
:1001D000F90184811170182B1483DF91CF911F9145
:1001E0000F91FF90EF9008950E945C00E0EAF4E028
:1001F000808180618083E0E0F4E0808182608083A0
:10020000E0E8F4E0808188608083E0E2F4E08081CF
:10021000816080830E946800969587959695879562
:0A0220000E947700F7CFF894FFCF9B
:00000001FF
