S01F0000696E746572727570745F766563746F725F343830395F632E7372656330
S11300000C9450000C945A000C945A000C947B00ED
S11300100C945A000C945A000C945A000C945A00F4
S11300200C945A000C945A000C945A000C945A00E4
S11300300C945A000C945A000C945A000C945A00D4
S11300400C945A000C945A000C945A000C945A00C4
S11300500C945A000C945A000C945A000C945A00B4
S11300600C945A000C945A000C945A000C945A00A4
S11300700C945A000C945A000C945A000C945A0094
S11300800C945A000C945A000C945A000C945A0084
S11300900C945A000C945A000C945A000C945A0074
S11300A011241FBECFEFCDBFDFE3DEBF0E948C0063
S11300B00C948F000C940000E0E4F1E080818168EE
S11300C08083828181608283878187838FEF8287A7
S11300D08FE083878091410180FDFCCF08950E94C9
S11300E05C0086E0809313017894E0E2F4E0808180
S11300F08160808308951F920F920FB60F9211248E
S11301008F9381E080934301809327048F910F9014
S11301100FBE0F901F9018950E946F00FFCFF894A8
S1050120FFCF0B
S9030000FC
