:100000000C9450000C945A000C945A000C945A0012
:100010000C945A000C945A000C945A000C945A00F8
:100020000C945A000C945A000C945A000C945A00E8
:100030000C945A000C945A000C945A000C945A00D8
:100040000C945A000C945A000C945A000C945A00C8
:100050000C945A000C945A000C945A000C945A00B8
:100060000C945A000C945A000C945A000C945A00A8
:100070000C945A000C945A000C945A000C945A0098
:100080000C945A000C945A000C945A000C945A0088
:100090000C945A000C945A000C945A000C945A0078
:1000A00011241FBECFEFCDBFDFE3DEBF0E942801CA
:1000B0000C942D010C940000E0E6F4E080818F7E2A
:1000C000808380818F7D8083E0E4F4E080818F7B7A
:1000D0008083E0E2F4E080818B7F8083A0EAB4E05B
:1000E0008C9180618C93A0E0B4E08C9182608C93C1
:1000F000A0E8B4E08C9188608C93808181608083DB
:100100000895CF92DF92FF920F931F93CF93DF93C7
:10011000C0E6D4E0188514FBAA27A0F9B0E0AA0F26
:10012000BB1FAA0FBB1FAA0FBB1FC885C5FBEE27AD
:10013000E0F9F0E0EE0FFF1FEE0FFF1FEA2BFB2BA5
:10014000A0914804A6FB222720F930E0220F331F9C
:100150002E2B3F2BE0E2F4E0A085A2FB882780F95C
:1001600090E0822B932B00EA14E0D8011496CC91F6
:100170009C0120953095D901B595A795B595A79582
:10018000B595A795A170A295A07FA095AC23E80195
:10019000AC83C0E0D4E0FC80D901B595A795B595B6
:1001A000A795A170AA0FA095AF21AC836894CC2429
:1001B000C7F8DD24D2F8D6011496FC901497359533
:1001C00027952170220F220F220F20952F211496A0
:1001D0002C93F4809C01B1E02B27217020952F21D6
:1001E0002483D8011496FC9014979C01369527958A
:1001F000369527953695279522953295307F32276B
:10020000207F32272F2914962C939C8182FB66270E
:1002100060F970E0660F771F692B6C83E6019C81A3
:1002200081FB442740F950E0440F551F440F551FF0
:10023000440F551F492B4C8394818170892B8483F3
:10024000DF91CF911F910F91FF90DF90CF90089594
:0E0250000E945C000E948100FDCFF894FFCF59
:00000001FF
